{
  "contractName": "DelegateFarm",
  "abi": [
    {
      "inputs": [
        {
          "internalType": "address",
          "name": "_rewards",
          "type": "address"
        },
        {
          "internalType": "address",
          "name": "_fee",
          "type": "address"
        },
        {
          "internalType": "contract IPancakeChef",
          "name": "_pancake",
          "type": "address"
        },
        {
          "internalType": "contract IRobiniaChef",
          "name": "_robinia",
          "type": "address"
        },
        {
          "internalType": "contract IBEP20",
          "name": "_userStaking",
          "type": "address"
        },
        {
          "internalType": "contract BEP20",
          "name": "_staking",
          "type": "address"
        },
        {
          "internalType": "contract IBEP20",
          "name": "_robiniaToken",
          "type": "address"
        },
        {
          "internalType": "uint256",
          "name": "_rbsPool",
          "type": "uint256"
        }
      ],
      "stateMutability": "nonpayable",
      "type": "constructor"
    },
    {
      "anonymous": false,
      "inputs": [
        {
          "indexed": true,
          "internalType": "address",
          "name": "user",
          "type": "address"
        },
        {
          "indexed": false,
          "internalType": "uint256",
          "name": "totalCake",
          "type": "uint256"
        }
      ],
      "name": "Deposit",
      "type": "event"
    },
    {
      "anonymous": false,
      "inputs": [
        {
          "indexed": true,
          "internalType": "address",
          "name": "previousOwner",
          "type": "address"
        },
        {
          "indexed": true,
          "internalType": "address",
          "name": "newOwner",
          "type": "address"
        }
      ],
      "name": "OwnershipTransferred",
      "type": "event"
    },
    {
      "anonymous": false,
      "inputs": [
        {
          "indexed": true,
          "internalType": "address",
          "name": "user",
          "type": "address"
        },
        {
          "indexed": false,
          "internalType": "uint256",
          "name": "amount",
          "type": "uint256"
        },
        {
          "indexed": false,
          "internalType": "uint256",
          "name": "netAmount",
          "type": "uint256"
        }
      ],
      "name": "TokenTransfered",
      "type": "event"
    },
    {
      "anonymous": false,
      "inputs": [
        {
          "indexed": true,
          "internalType": "address",
          "name": "user",
          "type": "address"
        },
        {
          "indexed": false,
          "internalType": "uint256",
          "name": "amount",
          "type": "uint256"
        }
      ],
      "name": "Withdraw",
      "type": "event"
    },
    {
      "inputs": [],
      "name": "BURN_ADDRESS",
      "outputs": [
        {
          "internalType": "address",
          "name": "",
          "type": "address"
        }
      ],
      "stateMutability": "view",
      "type": "function"
    },
    {
      "inputs": [],
      "name": "depositFeeBP",
      "outputs": [
        {
          "internalType": "uint256",
          "name": "",
          "type": "uint256"
        }
      ],
      "stateMutability": "view",
      "type": "function"
    },
    {
      "inputs": [],
      "name": "lastUpdateBlock",
      "outputs": [
        {
          "internalType": "uint256",
          "name": "",
          "type": "uint256"
        }
      ],
      "stateMutability": "view",
      "type": "function"
    },
    {
      "inputs": [],
      "name": "maxDepositFeeBP",
      "outputs": [
        {
          "internalType": "uint256",
          "name": "",
          "type": "uint256"
        }
      ],
      "stateMutability": "view",
      "type": "function"
    },
    {
      "inputs": [],
      "name": "maxWithdrawFeeBP",
      "outputs": [
        {
          "internalType": "uint256",
          "name": "",
          "type": "uint256"
        }
      ],
      "stateMutability": "view",
      "type": "function"
    },
    {
      "inputs": [],
      "name": "owner",
      "outputs": [
        {
          "internalType": "address",
          "name": "",
          "type": "address"
        }
      ],
      "stateMutability": "view",
      "type": "function"
    },
    {
      "inputs": [],
      "name": "pancakePoolId",
      "outputs": [
        {
          "internalType": "uint256",
          "name": "",
          "type": "uint256"
        }
      ],
      "stateMutability": "view",
      "type": "function"
    },
    {
      "inputs": [],
      "name": "poolId",
      "outputs": [
        {
          "internalType": "uint256",
          "name": "",
          "type": "uint256"
        }
      ],
      "stateMutability": "view",
      "type": "function"
    },
    {
      "inputs": [],
      "name": "renounceOwnership",
      "outputs": [],
      "stateMutability": "nonpayable",
      "type": "function"
    },
    {
      "inputs": [],
      "name": "tokenPerShare",
      "outputs": [
        {
          "internalType": "uint256",
          "name": "",
          "type": "uint256"
        }
      ],
      "stateMutability": "view",
      "type": "function"
    },
    {
      "inputs": [],
      "name": "totalStakedAmount",
      "outputs": [
        {
          "internalType": "uint256",
          "name": "",
          "type": "uint256"
        }
      ],
      "stateMutability": "view",
      "type": "function"
    },
    {
      "inputs": [],
      "name": "totalTokenHarvested",
      "outputs": [
        {
          "internalType": "uint256",
          "name": "",
          "type": "uint256"
        }
      ],
      "stateMutability": "view",
      "type": "function"
    },
    {
      "inputs": [
        {
          "internalType": "address",
          "name": "newOwner",
          "type": "address"
        }
      ],
      "name": "transferOwnership",
      "outputs": [],
      "stateMutability": "nonpayable",
      "type": "function"
    },
    {
      "inputs": [
        {
          "internalType": "address",
          "name": "",
          "type": "address"
        }
      ],
      "name": "userInfo",
      "outputs": [
        {
          "internalType": "uint256",
          "name": "amount",
          "type": "uint256"
        },
        {
          "internalType": "uint256",
          "name": "depositBlock",
          "type": "uint256"
        },
        {
          "internalType": "uint256",
          "name": "rewardDebt",
          "type": "uint256"
        }
      ],
      "stateMutability": "view",
      "type": "function"
    },
    {
      "inputs": [
        {
          "internalType": "uint256",
          "name": "",
          "type": "uint256"
        }
      ],
      "name": "withdrawFeeLevels",
      "outputs": [
        {
          "internalType": "uint256",
          "name": "",
          "type": "uint256"
        }
      ],
      "stateMutability": "view",
      "type": "function"
    },
    {
      "inputs": [
        {
          "internalType": "uint256",
          "name": "_amount",
          "type": "uint256"
        }
      ],
      "name": "deposit",
      "outputs": [],
      "stateMutability": "nonpayable",
      "type": "function"
    },
    {
      "inputs": [
        {
          "internalType": "uint256",
          "name": "_amount",
          "type": "uint256"
        }
      ],
      "name": "withdraw",
      "outputs": [],
      "stateMutability": "nonpayable",
      "type": "function"
    },
    {
      "inputs": [
        {
          "internalType": "address",
          "name": "_user",
          "type": "address"
        }
      ],
      "name": "pendingReward",
      "outputs": [
        {
          "internalType": "uint256",
          "name": "",
          "type": "uint256"
        }
      ],
      "stateMutability": "view",
      "type": "function"
    },
    {
      "inputs": [
        {
          "internalType": "uint256",
          "name": "depositBlock",
          "type": "uint256"
        }
      ],
      "name": "getWithdrawFee",
      "outputs": [
        {
          "internalType": "uint256",
          "name": "",
          "type": "uint256"
        }
      ],
      "stateMutability": "view",
      "type": "function"
    },
    {
      "inputs": [],
      "name": "getWithdrawalFeeLevels",
      "outputs": [
        {
          "internalType": "uint256",
          "name": "",
          "type": "uint256"
        },
        {
          "internalType": "uint256",
          "name": "",
          "type": "uint256"
        },
        {
          "internalType": "uint256",
          "name": "",
          "type": "uint256"
        }
      ],
      "stateMutability": "view",
      "type": "function"
    },
    {
      "inputs": [],
      "name": "getUserStakingToken",
      "outputs": [
        {
          "internalType": "contract IBEP20",
          "name": "",
          "type": "address"
        }
      ],
      "stateMutability": "view",
      "type": "function"
    },
    {
      "inputs": [],
      "name": "getPancakeChef",
      "outputs": [
        {
          "internalType": "contract IPancakeChef",
          "name": "",
          "type": "address"
        }
      ],
      "stateMutability": "view",
      "type": "function"
    },
    {
      "inputs": [],
      "name": "getRobiniaChef",
      "outputs": [
        {
          "internalType": "contract IRobiniaChef",
          "name": "",
          "type": "address"
        }
      ],
      "stateMutability": "view",
      "type": "function"
    },
    {
      "inputs": [],
      "name": "getStakingToken",
      "outputs": [
        {
          "internalType": "contract IBEP20",
          "name": "",
          "type": "address"
        }
      ],
      "stateMutability": "view",
      "type": "function"
    },
    {
      "inputs": [],
      "name": "getRobiniaToken",
      "outputs": [
        {
          "internalType": "contract IBEP20",
          "name": "",
          "type": "address"
        }
      ],
      "stateMutability": "view",
      "type": "function"
    },
    {
      "inputs": [
        {
          "internalType": "uint256",
          "name": "level1",
          "type": "uint256"
        },
        {
          "internalType": "uint256",
          "name": "level2",
          "type": "uint256"
        },
        {
          "internalType": "uint256",
          "name": "level3",
          "type": "uint256"
        }
      ],
      "name": "setWithdrawFeeLevels",
      "outputs": [],
      "stateMutability": "nonpayable",
      "type": "function"
    },
    {
      "inputs": [
        {
          "internalType": "uint256",
          "name": "_id",
          "type": "uint256"
        }
      ],
      "name": "setRobiniaPoolId",
      "outputs": [],
      "stateMutability": "nonpayable",
      "type": "function"
    },
    {
      "inputs": [
        {
          "internalType": "uint256",
          "name": "_fee",
          "type": "uint256"
        }
      ],
      "name": "setDepositFee",
      "outputs": [],
      "stateMutability": "nonpayable",
      "type": "function"
    },
    {
      "inputs": [
        {
          "internalType": "contract IBEP20",
          "name": "tokenContract",
          "type": "address"
        },
        {
          "internalType": "uint256",
          "name": "amount",
          "type": "uint256"
        }
      ],
      "name": "releaseStuckedBalances",
      "outputs": [],
      "stateMutability": "nonpayable",
      "type": "function"
    }
  ],
  "bytecode": "0x6103e8601081905560115560e060405261012c6080908152606460a052603260c052620000319060129060036200026e565b503480156200003f57600080fd5b5060405162002ef938038062002ef98339810160408190526200006291620002f1565b6200006d33620000fc565b60018055600280546001600160a01b03199081166001600160a01b038b8116919091179092556003805482168a8416179055600480548216898416179055600880548216878416179055600580548216888416179055600980548216868416179055600a80549091169184169190911790556006819055620000ee6200014c565b5050505050505050620003d1565b600080546001600160a01b038381166001600160a01b0319831681178455604051919092169283917f8be0079c531659141344cd1fd0a4f28419497f9722a3daafe3b4186f6b6457e09190a35050565b6008546004805460405163095ea7b360e01b81526001600160a01b039182169281019290925260001960248301529091169063095ea7b390604401602060405180830381600087803b158015620001a257600080fd5b505af1158015620001b7573d6000803e3d6000fd5b505050506040513d601f19601f82011682018060405250810190620001dd9190620003a6565b5060095460055460405163095ea7b360e01b81526001600160a01b039182166004820152600019602482015291169063095ea7b390604401602060405180830381600087803b1580156200023057600080fd5b505af115801562000245573d6000803e3d6000fd5b505050506040513d601f19601f820116820180604052508101906200026b9190620003a6565b50565b828054828255906000526020600020908101928215620002b2579160200282015b82811115620002b2578251829061ffff169055916020019190600101906200028f565b50620002c0929150620002c4565b5090565b5b80821115620002c05760008155600101620002c5565b6001600160a01b03811681146200026b57600080fd5b600080600080600080600080610100898b0312156200030f57600080fd5b88516200031c81620002db565b60208a01519098506200032f81620002db565b60408a01519097506200034281620002db565b60608a01519096506200035581620002db565b60808a01519095506200036881620002db565b60a08a01519094506200037b81620002db565b60c08a01519093506200038e81620002db565b8092505060e089015190509295985092959890939650565b600060208284031215620003b957600080fd5b81518015158114620003ca57600080fd5b9392505050565b612b1880620003e16000396000f3fe608060405234801561001057600080fd5b50600436106101cf5760003560e01c80637a4ca86511610104578063b6b55f25116100a2578063ccd583e011610071578063ccd583e0146103f8578063f2fde38b14610401578063f40f0f5214610414578063fccc28131461042757600080fd5b8063b6b55f25146103b5578063b96de8ba146103c8578063c7f73448146103d1578063c8b9bd4a146103da57600080fd5b80639f9106d1116100de5780639f9106d114610368578063a218141b14610386578063a7c7ee9d1461038f578063aeb4ad82146103ad57600080fd5b80637a4ca865146103195780638da5cb5b146103375780639a7af7091461035557600080fd5b8063490ae210116101715780635bb980071161014b5780635bb98007146102b657806370cfca9e146102f5578063715018a6146102fe5780637178a3eb1461030657600080fd5b8063490ae2101461029157806354747a70146102a4578063567e98f9146102ad57600080fd5b80632c759de0116101ad5780632c759de01461024d5780632e1a7d4d1461026257806339352559146102755780633e0dc34e1461028857600080fd5b8063101e7b8a146101d45780631959a002146101f057806329c23e4a1461023a575b600080fd5b6101dd60115481565b6040519081526020015b60405180910390f35b61021f6101fe36600461287b565b60136020526000908152604090208054600182015460029092015490919083565b604080519384526020840192909252908201526060016101e7565b6101dd610248366004612898565b610430565b61026061025b3660046128b1565b6104b9565b005b610260610270366004612898565b6106f7565b6101dd610283366004612898565b610ae2565b6101dd60065481565b61026061029f366004612898565b610b03565b6101dd600f5481565b6101dd600b5481565b60055473ffffffffffffffffffffffffffffffffffffffff165b60405173ffffffffffffffffffffffffffffffffffffffff90911681526020016101e7565b6101dd60075481565b610260610bf5565b610260610314366004612898565b610c82565b60045473ffffffffffffffffffffffffffffffffffffffff166102d0565b60005473ffffffffffffffffffffffffffffffffffffffff166102d0565b6102606103633660046128dd565b610d08565b60095473ffffffffffffffffffffffffffffffffffffffff166102d0565b6101dd600e5481565b600a5473ffffffffffffffffffffffffffffffffffffffff166102d0565b61021f610f39565b6102606103c3366004612898565b610fa6565b6101dd600c5481565b6101dd600d5481565b60085473ffffffffffffffffffffffffffffffffffffffff166102d0565b6101dd60105481565b61026061040f36600461287b565b6114f7565b6101dd61042236600461287b565b611627565b6102d061dead81565b6000438161043e828561176c565b905061708081101561047257601260008154811061045e5761045e612909565b906000526020600020015492505050919050565b61e10081101561049057601260018154811061045e5761045e612909565b620151808110156104af57601260028154811061045e5761045e612909565b5060009392505050565b60005473ffffffffffffffffffffffffffffffffffffffff16331461053f576040517f08c379a000000000000000000000000000000000000000000000000000000000815260206004820181905260248201527f4f776e61626c653a2063616c6c6572206973206e6f7420746865206f776e657260448201526064015b60405180910390fd5b6040517f70a0823100000000000000000000000000000000000000000000000000000000815230600482015260009073ffffffffffffffffffffffffffffffffffffffff8416906370a082319060240160206040518083038186803b1580156105a757600080fd5b505afa1580156105bb573d6000803e3d6000fd5b505050506040513d601f19601f820116820180604052508101906105df9190612938565b90508181101561064b576040517f08c379a000000000000000000000000000000000000000000000000000000000815260206004820152601160248201527f416d6f756e74206973206869676865722e0000000000000000000000000000006044820152606401610536565b6040517fa9059cbb0000000000000000000000000000000000000000000000000000000081523360048201526024810183905273ffffffffffffffffffffffffffffffffffffffff84169063a9059cbb90604401602060405180830381600087803b1580156106b957600080fd5b505af11580156106cd573d6000803e3d6000fd5b505050506040513d601f19601f820116820180604052508101906106f19190612951565b50505050565b60026001541415610764576040517f08c379a000000000000000000000000000000000000000000000000000000000815260206004820152601f60248201527f5265656e7472616e637947756172643a207265656e7472616e742063616c6c006044820152606401610536565b600260015533600090815260136020526040902080548211156107e3576040517f08c379a000000000000000000000000000000000000000000000000000000000815260206004820152601260248201527f77697468647261773a206e6f7420676f6f6400000000000000000000000000006044820152606401610536565b6107ee600080611781565b6000610826826002015461082064e8d4a5100061081a600d548760000154611c5b90919063ffffffff16565b90611c67565b9061176c565b9050801561083a576108383382611c73565b505b8215610a805761084b600184611781565b600b54610858908461176c565b600b558154610867908461176c565b82556008546040517f70a0823100000000000000000000000000000000000000000000000000000000815230600482015260009173ffffffffffffffffffffffffffffffffffffffff16906370a082319060240160206040518083038186803b1580156108d357600080fd5b505afa1580156108e7573d6000803e3d6000fd5b505050506040513d601f19601f8201168201806040525081019061090b9190612938565b905061091684611f2f565b6008546040517f70a0823100000000000000000000000000000000000000000000000000000000815230600482015260009173ffffffffffffffffffffffffffffffffffffffff16906370a082319060240160206040518083038186803b15801561098057600080fd5b505afa158015610994573d6000803e3d6000fd5b505050506040513d601f19601f820116820180604052508101906109b89190612938565b905060006109c6828461176c565b905060006109d78660010154610430565b90508015610a575760006109f161271061081a8585611c5b565b905060006109ff848361176c565b600354600854919250610a2c9173ffffffffffffffffffffffffffffffffffffffff908116911684612151565b600854610a509073ffffffffffffffffffffffffffffffffffffffff163383612151565b5050610a7b565b600854610a7b9073ffffffffffffffffffffffffffffffffffffffff163384612151565b505050505b436001830155600d548254610a9f9164e8d4a510009161081a91611c5b565b600283015560405183815233907f884edad9ce6fa2440d8a54cc123490eb96d2768479d49ff9c7366125a94243649060200160405180910390a250506001805550565b60128181548110610af257600080fd5b600091825260209091200154905081565b60005473ffffffffffffffffffffffffffffffffffffffff163314610b84576040517f08c379a000000000000000000000000000000000000000000000000000000000815260206004820181905260248201527f4f776e61626c653a2063616c6c6572206973206e6f7420746865206f776e65726044820152606401610536565b601054811115610bf0576040517f08c379a000000000000000000000000000000000000000000000000000000000815260206004820152601460248201527f4465706f7369742066656520746f6f20686967680000000000000000000000006044820152606401610536565b600f55565b60005473ffffffffffffffffffffffffffffffffffffffff163314610c76576040517f08c379a000000000000000000000000000000000000000000000000000000000815260206004820181905260248201527f4f776e61626c653a2063616c6c6572206973206e6f7420746865206f776e65726044820152606401610536565b610c80600061222a565b565b60005473ffffffffffffffffffffffffffffffffffffffff163314610d03576040517f08c379a000000000000000000000000000000000000000000000000000000000815260206004820181905260248201527f4f776e61626c653a2063616c6c6572206973206e6f7420746865206f776e65726044820152606401610536565b600655565b60005473ffffffffffffffffffffffffffffffffffffffff163314610d89576040517f08c379a000000000000000000000000000000000000000000000000000000000815260206004820181905260248201527f4f776e61626c653a2063616c6c6572206973206e6f7420746865206f776e65726044820152606401610536565b601154831115610df5576040517f08c379a000000000000000000000000000000000000000000000000000000000815260206004820152600f60248201527f6c6576656c3120746f6f206869676800000000000000000000000000000000006044820152606401610536565b601154821115610e61576040517f08c379a000000000000000000000000000000000000000000000000000000000815260206004820152600f60248201527f6c6576656c3120746f6f206869676800000000000000000000000000000000006044820152606401610536565b601154811115610ecd576040517f08c379a000000000000000000000000000000000000000000000000000000000815260206004820152600f60248201527f6c6576656c3120746f6f206869676800000000000000000000000000000000006044820152606401610536565b826012600081548110610ee257610ee2612909565b9060005260206000200181905550816012600181548110610f0557610f05612909565b9060005260206000200181905550806012600281548110610f2857610f28612909565b600091825260209091200155505050565b60008060006012600081548110610f5257610f52612909565b90600052602060002001546012600181548110610f7157610f71612909565b90600052602060002001546012600281548110610f9057610f90612909565b9060005260206000200154925092509250909192565b60026001541415611013576040517f08c379a000000000000000000000000000000000000000000000000000000000815260206004820152601f60248201527f5265656e7472616e637947756172643a207265656e7472616e742063616c6c006044820152606401610536565b60026001553361107f576040517f08c379a000000000000000000000000000000000000000000000000000000000815260206004820152600f60248201527f53656e646572206973207a65726f2e00000000000000000000000000000000006044820152606401610536565b336000908152601360205260408120906110999080611781565b8054156110e25760006110cc826002015461082064e8d4a5100061081a600d548760000154611c5b90919063ffffffff16565b905080156110e0576110de3382611c73565b505b505b811561149c576008546040517f70a0823100000000000000000000000000000000000000000000000000000000815230600482015260009173ffffffffffffffffffffffffffffffffffffffff16906370a082319060240160206040518083038186803b15801561115257600080fd5b505afa158015611166573d6000803e3d6000fd5b505050506040513d601f19601f8201168201806040525081019061118a9190612938565b6008549091506111b29073ffffffffffffffffffffffffffffffffffffffff1633308661229f565b6008546040517f70a0823100000000000000000000000000000000000000000000000000000000815230600482015260009173ffffffffffffffffffffffffffffffffffffffff16906370a082319060240160206040518083038186803b15801561121c57600080fd5b505afa158015611230573d6000803e3d6000fd5b505050506040513d601f19601f820116820180604052508101906112549190612938565b90506000611262828461176c565b9050600061128161271061081a600f5485611c5b90919063ffffffff16565b9050600061128f838361176c565b90508261129c82846122fd565b14611303576040517f08c379a000000000000000000000000000000000000000000000000000000000815260206004820152601960248201527f4572726f72206174206665652063616c63756c6174696f6e2e000000000000006044820152606401610536565b60035460085461132d9173ffffffffffffffffffffffffffffffffffffffff918216911684612151565b61133681612309565b6009546040517fa0712d680000000000000000000000000000000000000000000000000000000081526004810183905273ffffffffffffffffffffffffffffffffffffffff9091169063a0712d6890602401602060405180830381600087803b1580156113a257600080fd5b505af11580156113b6573d6000803e3d6000fd5b505050506040513d601f19601f820116820180604052508101906113da9190612951565b506005546006546040517f8dbdbe6d0000000000000000000000000000000000000000000000000000000081526004810191909152602481018390526000604482015273ffffffffffffffffffffffffffffffffffffffff90911690638dbdbe6d90606401600060405180830381600087803b15801561145957600080fd5b505af115801561146d573d6000803e3d6000fd5b5050875461147e92509050826122fd565b8655436001870155600b5461149390826122fd565b600b5550505050505b600d5481546114b59164e8d4a510009161081a91611c5b565b600282015560405182815233907fe1fffcc4923d04b559f4d29a8bfc6cda04eb5b0d3c460751c2402c5c5cc9109c9060200160405180910390a2505060018055565b60005473ffffffffffffffffffffffffffffffffffffffff163314611578576040517f08c379a000000000000000000000000000000000000000000000000000000000815260206004820181905260248201527f4f776e61626c653a2063616c6c6572206973206e6f7420746865206f776e65726044820152606401610536565b73ffffffffffffffffffffffffffffffffffffffff811661161b576040517f08c379a000000000000000000000000000000000000000000000000000000000815260206004820152602660248201527f4f776e61626c653a206e6577206f776e657220697320746865207a65726f206160448201527f64647265737300000000000000000000000000000000000000000000000000006064820152608401610536565b6116248161222a565b50565b73ffffffffffffffffffffffffffffffffffffffff81166000908152601360205260408120600d5461165c5750600092915050565b6005546006546040517f8d3a23cc000000000000000000000000000000000000000000000000000000008152600481019190915230602482015260009173ffffffffffffffffffffffffffffffffffffffff1690638d3a23cc9060440160206040518083038186803b1580156116d157600080fd5b505afa1580156116e5573d6000803e3d6000fd5b505050506040513d601f19601f820116820180604052508101906117099190612938565b600d54909150811561173b57600b546117389061172f9061081a8564e8d4a51000611c5b565b600d54906122fd565b90505b611763836002015461082064e8d4a5100061081a858860000154611c5b90919063ffffffff16565b95945050505050565b600061177882846129a2565b90505b92915050565b600a546040517f70a0823100000000000000000000000000000000000000000000000000000000815230600482015260009173ffffffffffffffffffffffffffffffffffffffff16906370a082319060240160206040518083038186803b1580156117eb57600080fd5b505afa1580156117ff573d6000803e3d6000fd5b505050506040513d601f19601f820116820180604052508101906118239190612938565b9050600b546000141561183957505043600e5550565b8215611ad9576009546040517f70a0823100000000000000000000000000000000000000000000000000000000815230600482015260009173ffffffffffffffffffffffffffffffffffffffff16906370a082319060240160206040518083038186803b1580156118a957600080fd5b505afa1580156118bd573d6000803e3d6000fd5b505050506040513d601f19601f820116820180604052508101906118e19190612938565b6005546006546040517f441a3e7000000000000000000000000000000000000000000000000000000000815260048101919091526024810186905291925073ffffffffffffffffffffffffffffffffffffffff169063441a3e7090604401600060405180830381600087803b15801561195957600080fd5b505af115801561196d573d6000803e3d6000fd5b50506009546040517f70a082310000000000000000000000000000000000000000000000000000000081523060048201526000935073ffffffffffffffffffffffffffffffffffffffff90911691506370a082319060240160206040518083038186803b1580156119dd57600080fd5b505afa1580156119f1573d6000803e3d6000fd5b505050506040513d601f19601f82011682018060405250810190611a159190612938565b90506000611a23828461176c565b6009546040517fa9059cbb00000000000000000000000000000000000000000000000000000000815261dead60048201526024810183905291925073ffffffffffffffffffffffffffffffffffffffff169063a9059cbb90604401602060405180830381600087803b158015611a9857600080fd5b505af1158015611aac573d6000803e3d6000fd5b505050506040513d601f19601f82011682018060405250810190611ad09190612951565b50505050611b70565b6005546006546040517f8dbdbe6d0000000000000000000000000000000000000000000000000000000081526004810191909152600060248201819052604482015273ffffffffffffffffffffffffffffffffffffffff90911690638dbdbe6d90606401600060405180830381600087803b158015611b5757600080fd5b505af1158015611b6b573d6000803e3d6000fd5b505050505b600a546040517f70a0823100000000000000000000000000000000000000000000000000000000815230600482015260009173ffffffffffffffffffffffffffffffffffffffff16906370a082319060240160206040518083038186803b158015611bda57600080fd5b505afa158015611bee573d6000803e3d6000fd5b505050506040513d601f19601f82011682018060405250810190611c129190612938565b90506000611c20828461176c565b600c54909150611c3090826122fd565b600c55600b54611c4d9061172f9061081a8464e8d4a51000611c5b565b600d55505043600e55505050565b600061177882846129b9565b600061177882846129f6565b600a546040517f70a08231000000000000000000000000000000000000000000000000000000008152306004820152600091829173ffffffffffffffffffffffffffffffffffffffff909116906370a082319060240160206040518083038186803b158015611ce157600080fd5b505afa158015611cf5573d6000803e3d6000fd5b505050506040513d601f19601f82011682018060405250810190611d199190612938565b905080831115611e2857600a546040517fa9059cbb00000000000000000000000000000000000000000000000000000000815273ffffffffffffffffffffffffffffffffffffffff8681166004830152602482018490529091169063a9059cbb90604401602060405180830381600087803b158015611d9757600080fd5b505af1158015611dab573d6000803e3d6000fd5b505050506040513d601f19601f82011682018060405250810190611dcf9190612951565b50604080518481526020810183905273ffffffffffffffffffffffffffffffffffffffff8616917f88c6366d79a8c48bffde10da069ccf79815de95fa928dd7bb3b218dbc2d613aa910160405180910390a2905061177b565b600a546040517fa9059cbb00000000000000000000000000000000000000000000000000000000815273ffffffffffffffffffffffffffffffffffffffff8681166004830152602482018690529091169063a9059cbb90604401602060405180830381600087803b158015611e9c57600080fd5b505af1158015611eb0573d6000803e3d6000fd5b505050506040513d601f19601f82011682018060405250810190611ed49190612951565b50604080518481526020810185905273ffffffffffffffffffffffffffffffffffffffff8616917f88c6366d79a8c48bffde10da069ccf79815de95fa928dd7bb3b218dbc2d613aa910160405180910390a28291505061177b565b6008546040517f70a0823100000000000000000000000000000000000000000000000000000000815230600482015260009173ffffffffffffffffffffffffffffffffffffffff16906370a082319060240160206040518083038186803b158015611f9957600080fd5b505afa158015611fad573d6000803e3d6000fd5b505050506040513d601f19601f82011682018060405250810190611fd19190612938565b600480546040517f1058d28100000000000000000000000000000000000000000000000000000000815292935073ffffffffffffffffffffffffffffffffffffffff1691631058d2819161202b9186910190815260200190565b600060405180830381600087803b15801561204557600080fd5b505af1158015612059573d6000803e3d6000fd5b50506008546040517f70a082310000000000000000000000000000000000000000000000000000000081523060048201526000935073ffffffffffffffffffffffffffffffffffffffff90911691506370a082319060240160206040518083038186803b1580156120c957600080fd5b505afa1580156120dd573d6000803e3d6000fd5b505050506040513d601f19601f820116820180604052508101906121019190612938565b9050600061210f828461176c565b9050600061211d828661176c565b60025460085491925061214a9173ffffffffffffffffffffffffffffffffffffffff908116911683612151565b5050505050565b60405173ffffffffffffffffffffffffffffffffffffffff83166024820152604481018290526122259084907fa9059cbb00000000000000000000000000000000000000000000000000000000906064015b604080517fffffffffffffffffffffffffffffffffffffffffffffffffffffffffffffffe08184030181529190526020810180517bffffffffffffffffffffffffffffffffffffffffffffffffffffffff167fffffffff0000000000000000000000000000000000000000000000000000000090931692909217909152612561565b505050565b6000805473ffffffffffffffffffffffffffffffffffffffff8381167fffffffffffffffffffffffff0000000000000000000000000000000000000000831681178455604051919092169283917f8be0079c531659141344cd1fd0a4f28419497f9722a3daafe3b4186f6b6457e09190a35050565b60405173ffffffffffffffffffffffffffffffffffffffff808516602483015283166044820152606481018290526106f19085907f23b872dd00000000000000000000000000000000000000000000000000000000906084016121a3565b60006117788284612a31565b6008546040517f70a0823100000000000000000000000000000000000000000000000000000000815230600482015260009173ffffffffffffffffffffffffffffffffffffffff16906370a082319060240160206040518083038186803b15801561237357600080fd5b505afa158015612387573d6000803e3d6000fd5b505050506040513d601f19601f820116820180604052508101906123ab9190612938565b905081811015612417576040517f08c379a000000000000000000000000000000000000000000000000000000000815260206004820152601d60248201527f70616e63616b654465706f73697420616d6f756e74206869676865722e0000006044820152606401610536565b6000612423828461176c565b600480546040517f41441d3b00000000000000000000000000000000000000000000000000000000815292935073ffffffffffffffffffffffffffffffffffffffff16916341441d3b9161247d9187910190815260200190565b600060405180830381600087803b15801561249757600080fd5b505af11580156124ab573d6000803e3d6000fd5b50506008546040517f70a082310000000000000000000000000000000000000000000000000000000081523060048201526000935073ffffffffffffffffffffffffffffffffffffffff90911691506370a082319060240160206040518083038186803b15801561251b57600080fd5b505afa15801561252f573d6000803e3d6000fd5b505050506040513d601f19601f820116820180604052508101906125539190612938565b9050600061211d828461176c565b60006125c3826040518060400160405280602081526020017f5361666542455032303a206c6f772d6c6576656c2063616c6c206661696c65648152508573ffffffffffffffffffffffffffffffffffffffff1661266d9092919063ffffffff16565b80519091501561222557808060200190518101906125e19190612951565b612225576040517f08c379a000000000000000000000000000000000000000000000000000000000815260206004820152602a60248201527f5361666542455032303a204245503230206f7065726174696f6e20646964206e60448201527f6f742073756363656564000000000000000000000000000000000000000000006064820152608401610536565b606061267c8484600085612686565b90505b9392505050565b606082471015612718576040517f08c379a000000000000000000000000000000000000000000000000000000000815260206004820152602660248201527f416464726573733a20696e73756666696369656e742062616c616e636520666f60448201527f722063616c6c00000000000000000000000000000000000000000000000000006064820152608401610536565b843b612780576040517f08c379a000000000000000000000000000000000000000000000000000000000815260206004820152601d60248201527f416464726573733a2063616c6c20746f206e6f6e2d636f6e74726163740000006044820152606401610536565b6000808673ffffffffffffffffffffffffffffffffffffffff1685876040516127a99190612a75565b60006040518083038185875af1925050503d80600081146127e6576040519150601f19603f3d011682016040523d82523d6000602084013e6127eb565b606091505b50915091506127fb828286612806565b979650505050505050565b6060831561281557508161267f565b8251156128255782518084602001fd5b816040517f08c379a00000000000000000000000000000000000000000000000000000000081526004016105369190612a91565b73ffffffffffffffffffffffffffffffffffffffff8116811461162457600080fd5b60006020828403121561288d57600080fd5b813561267f81612859565b6000602082840312156128aa57600080fd5b5035919050565b600080604083850312156128c457600080fd5b82356128cf81612859565b946020939093013593505050565b6000806000606084860312156128f257600080fd5b505081359360208301359350604090920135919050565b7f4e487b7100000000000000000000000000000000000000000000000000000000600052603260045260246000fd5b60006020828403121561294a57600080fd5b5051919050565b60006020828403121561296357600080fd5b8151801515811461267f57600080fd5b7f4e487b7100000000000000000000000000000000000000000000000000000000600052601160045260246000fd5b6000828210156129b4576129b4612973565b500390565b6000817fffffffffffffffffffffffffffffffffffffffffffffffffffffffffffffffff04831182151516156129f1576129f1612973565b500290565b600082612a2c577f4e487b7100000000000000000000000000000000000000000000000000000000600052601260045260246000fd5b500490565b60008219821115612a4457612a44612973565b500190565b60005b83811015612a64578181015183820152602001612a4c565b838111156106f15750506000910152565b60008251612a87818460208701612a49565b9190910192915050565b6020815260008251806020840152612ab0816040850160208701612a49565b601f017fffffffffffffffffffffffffffffffffffffffffffffffffffffffffffffffe016919091016040019291505056fea2646970667358221220367739c9e4319816a86d3c8fcf086075f14cb1804109830b3ccca7e74500f6e664736f6c63430008090033",
  "immutableReferences": {},
  "source": "pragma solidity ^0.8.9;\n\nimport \"./Ownable.sol\";\nimport \"./BEP20.sol\";\nimport \"./IBEP20.sol\"; // gerek tokenleri importla\nimport \"./SafeBEP20.sol\";\nimport \"./IPancakeChef.sol\";\nimport \"./IRobiniaChef.sol\";\nimport \"./ReentrancyGuard.sol\";\n\ncontract DelegateFarm is Ownable, ReentrancyGuard {\n    using SafeMath for uint256;\n    using SafeBEP20 for IBEP20;\n    \n    struct UserInfo {\n        uint256 amount;\n        uint256 depositBlock;\n        uint256 rewardDebt; // harvestlenen miktar.\n    }\n\n    struct WithdrawFee {\n        uint256 blockUntil; // blok says bu veya daha dk ise feeBp dnecektir.\n        uint256 feeBP;\n    }\n\n    address private rewardAddr; // dep- with fee ler ile harvest feeler ayr adrese\n    address private feeAddr;\n\n    IPancakeChef private pancakeChef;\n    IRobiniaChef private robiniaChef;\n    uint256 public poolId; // robiniada stakelenecek pool idsi.,\n    uint256 public pancakePoolId;\n\n    IBEP20 private userStakingToken; // Bu noktada cake. Pancakeswap masterchefine yatrlan token.\n    BEP20 private stakingToken; // masterchefe deposit edilecek token.\n    IBEP20 private robiniaToken;\n    \n    address public constant BURN_ADDRESS = 0x000000000000000000000000000000000000dEaD;\n    uint256 public totalStakedAmount;\n    uint256 public totalTokenHarvested;\n    uint256 public tokenPerShare;\n    uint256 public lastUpdateBlock;\n    uint256 public depositFeeBP;\n    uint256 public maxDepositFeeBP = 1000; // max 10%\n    uint256 public maxWithdrawFeeBP = 1000;\n    uint256[] public withdrawFeeLevels = [300,100,50];\n    mapping(address => UserInfo) public userInfo;\n\n    constructor(address _rewards, address _fee, IPancakeChef _pancake, IRobiniaChef _robinia, \n    IBEP20 _userStaking, BEP20 _staking, IBEP20 _robiniaToken, uint256 _rbsPool) {\n        rewardAddr = _rewards;\n        feeAddr = _fee;\n        pancakeChef = _pancake;\n        userStakingToken = _userStaking;\n        robiniaChef = _robinia;\n        stakingToken = _staking;\n        robiniaToken = _robiniaToken; // token kontratn gncelle.\n        poolId = _rbsPool;\n        initialApprovals();\n    }\n\n    // user function\n    function deposit(uint256 _amount) public nonReentrant {\n\n        require(msg.sender != address(0),\"Sender is zero.\");\n\n        UserInfo storage user = userInfo[msg.sender];\n        updateShares(false, 0);\n        if(user.amount > 0) { // burada sfrlama yaplmamal \n            // eer user zaten deposit yaptysa\n            //updateShares(true, user.amount); // nce mevcut miktar withdraw edip yakalm. // YARIN BU SATIR KALKMASI GEREKEBLR\n            uint256 pending = user.amount.mul(tokenPerShare).div(1e12).sub(user.rewardDebt);\n            if(pending > 0) {\n                safeTransferFunds(msg.sender, pending);\n            }\n            //totalStakedAmount = totalStakedAmount.sub(user.amount); // BURADA KALKMALI\n            //user.amount = 0; // BURASIDA\n            // KULLANICI DEPOST YAPARKEN KUMULATIF ARTACAK O SEBEPTEN BUNLARI KALDIR\n        }\n        \n        if(_amount > 0) {\n            // get cakes from user\n            uint256 beforeCake = userStakingToken.balanceOf(address(this));\n            userStakingToken.safeTransferFrom(msg.sender, address(this), _amount);\n            uint256 afterCake = userStakingToken.balanceOf(address(this));\n            uint256 netTokenTransferred = afterCake.sub(beforeCake);\n            uint256 fee = netTokenTransferred.mul(depositFeeBP).div(10000);\n            uint256 netTokenStaked = netTokenTransferred.sub(fee);\n            require((netTokenStaked.add(fee)) == netTokenTransferred, \"Error at fee calculation.\");\n            userStakingToken.safeTransfer(feeAddr, fee); // deposit fee gnderimi\n            /// pancake depsoit fonksiyonunu ayr dl gelecek.\n            pancakeDeposit(netTokenStaked);  // stakelenecek net token miktar gnderiliyor.\n            // pancake masterchefe stake ilemi.\n            stakingToken.mint(netTokenStaked);\n            robiniaChef.deposit(poolId, netTokenStaked, address(0));\n            user.amount = user.amount.add(netTokenStaked); // BURAYA MEVCUTUDA EKLE\n            user.depositBlock = block.number;\n            totalStakedAmount = totalStakedAmount.add(netTokenStaked);\n        }\n\n        user.rewardDebt = user.amount.mul(tokenPerShare).div(1e12);\n        emit Deposit(msg.sender,_amount);\n    }\n    \n    // user function\n    function withdraw(uint256 _amount) public nonReentrant {\n        // Withdraw ederken kontrata harvestlanan cakeler + kullancnn stakeleri gelecei iin hesaplamada dikkat edilmeli. Kullancya stakeledii cake miktar + robinia gnderilecek.\n        UserInfo storage user = userInfo[msg.sender];\n        require(user.amount >= _amount, \"withdraw: not good\");\n        updateShares(false, 0);\n        uint256 pendingRobinia = user.amount.mul(tokenPerShare).div(1e12).sub(user.rewardDebt);\n        if(pendingRobinia > 0) {\n            safeTransferFunds(msg.sender, pendingRobinia); // nce robinialarn gnderelim\n        }\n\n        if(_amount > 0) {\n            // withdraw burada balyor.\n            \n            updateShares(true, _amount); // withdraw ile share gncellendi.\n            totalStakedAmount = totalStakedAmount.sub(_amount); // update sharesin stnde olduu zaman withdrawda bakiye azaltlmyor.\n            user.amount = user.amount.sub(_amount); // user amountu azaltld.\n             // stakelenen stake token miktar azaltld.\n\n            // imdi cakeleri geri alalm\n            uint256 beforeCakeBalance = userStakingToken.balanceOf(address(this));\n            pancakeWithdraw(_amount);\n            uint256 afterCakeBalance = userStakingToken.balanceOf(address(this));\n            uint256 netWithdrawAmount = afterCakeBalance.sub(beforeCakeBalance); // harvestlar dlm halde kullancnn net cakeleri\n            // buraya withdraw fee kontrol\n            uint256 withdrawFeeBP = getWithdrawFee(user.depositBlock); // depositblocka gre withdraw fee gelecek.\n            if(withdrawFeeBP > 0) {\n                uint256 withdrawFee = netWithdrawAmount.mul(withdrawFeeBP).div(10000);\n                uint256 netUserWithdraw = netWithdrawAmount.sub(withdrawFee);\n                userStakingToken.safeTransfer(feeAddr, withdrawFee);\n                userStakingToken.safeTransfer(msg.sender, netUserWithdraw);\n            } else {\n                // fee yok\n                userStakingToken.safeTransfer(msg.sender, netWithdrawAmount); // usera cakelerini gnder\n            }\n        }\n\n        user.depositBlock = block.number; // userin deposit blounu gncelleyelim srekli withdraw spam olmamas iin.\n        user.rewardDebt = user.amount.mul(tokenPerShare).div(1e12);\n\n        emit Withdraw(msg.sender, _amount);\n    }\n\n    //// internal functions\n\n    function pendingReward(address _user) public view returns(uint256){ // reverted sdnyor \n        UserInfo storage u = userInfo[_user];\n        if(tokenPerShare == 0) { // reverted hatas iin kontrol. Eer tokenpershare 0 ise revert yerine 0 dndrsn.\n            return 0;\n        }\n        uint256 pendingBalance = robiniaChef.pendingRobinia(poolId, address(this));\n        uint256 newShare = tokenPerShare;\n        if(pendingBalance > 0) {\n            newShare = tokenPerShare.add(pendingBalance.mul(1e12).div(totalStakedAmount));\n        }\n        return u.amount.mul(newShare).div(1e12).sub(u.rewardDebt);\n    }\n\n    // her deposit ve withdrawdan sonra share hesaplamas yapan fonksiyon.\n    function updateShares(bool isWithdraw, uint256 _amount) internal {\n        uint256 rbsBalanceBefore = robiniaToken.balanceOf(address(this));\n        // alttaki satr kalkabilir total stake 0 olunca problem oluyor ne deposit ne withdraw yapr.\n        if(totalStakedAmount == 0) { // total staked amount deposit ve withdraw hesaplanmal nk tokenler burada durmayacak.\n            lastUpdateBlock = block.number;\n            return;\n        }\n        if(isWithdraw) {\n            uint256 beforeWithdraw = stakingToken.balanceOf(address(this));\n            robiniaChef.withdraw(poolId, _amount);\n            uint256 afterWithdraw = stakingToken.balanceOf(address(this));\n            uint256 netToBurn = afterWithdraw.sub(beforeWithdraw);\n            stakingToken.transfer(BURN_ADDRESS, netToBurn);\n        } else {\n            robiniaChef.deposit(poolId, 0, address(0)); // sfr deposit yaparak harvestlar alalm\n        }\n        uint256 rbsBalanceAfter = robiniaToken.balanceOf(address(this));\n        uint256 harvestedNet = rbsBalanceAfter.sub(rbsBalanceBefore);\n        totalTokenHarvested = totalTokenHarvested.add(harvestedNet);\n        tokenPerShare = tokenPerShare.add(harvestedNet.mul(1e12).div(totalStakedAmount));\n        lastUpdateBlock = block.number;\n    }\n\n    function pancakeDeposit(uint256 _amount) internal {\n        uint256 beforeCakeBalance = userStakingToken.balanceOf(address(this)); // burada kullancnn miktarda var\n        require(beforeCakeBalance >= _amount, \"pancakeDeposit amount higher.\");\n        uint256 beforeNetCake = beforeCakeBalance.sub(_amount);\n        pancakeChef.enterStaking(_amount);\n        uint256 afterCakeBalance = userStakingToken.balanceOf(address(this));\n        uint256 netRewards = afterCakeBalance.sub(beforeNetCake);\n        userStakingToken.safeTransfer(rewardAddr, netRewards);\n    }\n\n    function pancakeWithdraw(uint256 _amount) internal {\n        uint256 beforeCakeBalance = userStakingToken.balanceOf(address(this)); // withdraw ncesi balance.\n        pancakeChef.leaveStaking(_amount); // pancake e stakelenen net miktar gnderilmeli.\n        uint256 afterCakeBalance = userStakingToken.balanceOf(address(this));\n        uint256 netCakeAmount = afterCakeBalance.sub(beforeCakeBalance); // ekilen net miktar. harvestlarda var\n        uint256 netCakeRewards = netCakeAmount.sub(_amount);\n        userStakingToken.safeTransfer(rewardAddr, netCakeRewards);\n    }\n\n\n    function initialApprovals() internal {\n        //approve cakes for pancakeswap masterchef\n        userStakingToken.approve(address(pancakeChef), ~uint256(0));\n\n        //approve staking token for robinia masterchef\n        stakingToken.approve(address(robiniaChef), ~uint256(0));\n    }\n\n\n    function safeTransferFunds(address user, uint256 amount) internal returns(uint256){\n        uint256 robiniaSwapBal = robiniaToken.balanceOf(address(this));\n        if (amount > robiniaSwapBal) {\n            robiniaToken.transfer(user, robiniaSwapBal);\n            emit TokenTransfered(user,amount,robiniaSwapBal);\n            return robiniaSwapBal;\n        } else {\n            robiniaToken.transfer(user, amount);\n            emit TokenTransfered(user,amount,amount);\n            return amount;\n        }\n    }\n\n    //// view functions\n\n    // blok tabanl withdraw fee hesaplamas iin fonksiyon. Return deeri base point olacaktr.\n    function getWithdrawFee(uint256 depositBlock) public view returns(uint256) {\n        uint256 currentBlock = block.number;\n        uint256 netBlocks = currentBlock.sub(depositBlock);\n        if(netBlocks < 28800) { // 1 gn\n            return withdrawFeeLevels[0];\n        } else if(netBlocks < 57600) {\n            return withdrawFeeLevels[1];\n        } else if(netBlocks < 86400) {\n            return withdrawFeeLevels[2];\n        } else {\n            return 0;\n        }\n    }\n\n    function getWithdrawalFeeLevels() public view returns(uint256,uint256,uint256) {\n        return (withdrawFeeLevels[0], withdrawFeeLevels[1], withdrawFeeLevels[2]);\n    }\n\n    function getUserStakingToken() public view returns(IBEP20) {\n        return userStakingToken;\n    }\n\n    function getPancakeChef() public view returns(IPancakeChef) {\n        return pancakeChef;\n    }\n\n    function getRobiniaChef() public view returns(IRobiniaChef) {\n        return robiniaChef;\n    }\n\n    function getStakingToken() public view returns(IBEP20) {\n        return stakingToken;\n    }\n\n    function getRobiniaToken() public view returns(IBEP20) {\n        return robiniaToken;\n    }\n\n    /// OWNER FUNCTIONS\n\n    function setWithdrawFeeLevels(uint256 level1, uint256 level2, uint256 level3) public onlyOwner {\n        require(level1 <= maxWithdrawFeeBP, \"level1 too high\");\n        require(level2 <= maxWithdrawFeeBP, \"level1 too high\");\n        require(level3 <= maxWithdrawFeeBP, \"level1 too high\");\n\n        withdrawFeeLevels[0] = level1;\n        withdrawFeeLevels[1] = level2;\n        withdrawFeeLevels[2] = level3;\n    }\n\n    //in case of changing the pool on robinia masterchef we can change the pool id from here.\n    function setRobiniaPoolId(uint256 _id) public onlyOwner {\n        poolId = _id;\n    }\n\n    function setDepositFee(uint256 _fee) public onlyOwner {\n        require(_fee <= maxDepositFeeBP, \"Deposit fee too high\");\n        depositFeeBP = _fee;\n    }\n\n    // This is a delegate farm contract. So there shouldnt be any tokens inside of this contract.\n    // If there is any errors or smth stucked inside, owner can withdraw these tokens.\n    // User funds are safe because these funds should be inside the pancake masterchef.\n    function releaseStuckedBalances(IBEP20 tokenContract, uint256 amount) public onlyOwner {\n        uint256 balance = tokenContract.balanceOf(address(this));\n        require(balance >= amount, \"Amount is higher.\");\n        tokenContract.transfer(msg.sender, amount);\n    }\n    // events\n\n    event TokenTransfered(address indexed user, uint256 amount, uint256 netAmount);\n    event Deposit(address indexed user, uint256 totalCake);\n    event Withdraw(address indexed user, uint256 amount);\n}",
  "sourcePath": "/Users/ermvrs/Desktop/Robinia/robinia-delegate-farms/contracts/DelegateFarm.sol",
  "compiler": {
    "name": "solc",
    "version": "0.8.9+commit.e5eed63a.Emscripten.clang"
  },
  "schemaVersion": "3.4.0",
  "updatedAt": "2021-11-23T15:48:45.422Z",
  "devdoc": {
    "kind": "dev",
    "methods": {
      "owner()": {
        "details": "Returns the address of the current owner."
      },
      "renounceOwnership()": {
        "details": "Leaves the contract without owner. It will not be possible to call `onlyOwner` functions anymore. Can only be called by the current owner. NOTE: Renouncing ownership will leave the contract without an owner, thereby removing any functionality that is only available to the owner."
      },
      "transferOwnership(address)": {
        "details": "Transfers ownership of the contract to a new account (`newOwner`). Can only be called by the current owner."
      }
    },
    "version": 1
  },
  "userdoc": {
    "kind": "user",
    "methods": {
      "setWithdrawFeeLevels(uint256,uint256,uint256)": {
        "notice": "OWNER FUNCTIONS"
      }
    },
    "version": 1
  }
}